:100000000C942A000C943F000C943F000C943F0089
:100010000C943F000C943F000C943F000C943F0064
:100020000C943F000C943F000C943F000C943F0054
:100030000C943F000C943F000C943F000C943F0044
:100040000C943F000C943F000C943F000C943F0034
:100050000C943F0011241FBECFE5D8E0DEBFCDBF1A
:1000600010E0A0E6B0E0E2EFF5E002C005900D92EE
:10007000A438B107D9F70E941C020C94F7020C9423
:100080000000813081F0813028F08230A9F0833087
:1000900021F51BC0662311F41ABA08956130E9F402
:1000A0008FEF8ABB0895662311F417BA0895613063
:1000B000A1F48FEF87BB0895662311F414BA089555
:1000C000613059F48FEF84BB0895662311F411BA9F
:1000D0000895613011F48FEF81BB0895813049F0AC
:1000E000813028F0823039F0833041F406C06BBB98
:1000F000089568BB089565BB089562BB089581307B
:1001000051F0813030F0823041F0833041F080E0B6
:10011000089589B3089586B3089583B3089580B38D
:100120000895813029F1813038F0823009F43CC0E3
:10013000833009F06EC053C0442361F42AB381E0D8
:1001400090E002C0880F991F6A95E2F7809582239C
:100150008ABB0895413009F05CC02AB381E090E089
:1001600002C0880F991F6A95E2F7282B2ABB0895D1
:10017000442361F427B381E090E002C0880F991F07
:100180006A95E2F78095822387BB0895413009F094
:1001900040C027B381E090E002C0880F991F6A95A4
:1001A000E2F7282B27BB0895442361F424B381E0B0
:1001B00090E002C0880F991F6A95E2F7809582232C
:1001C00084BB0895413029F524B381E090E002C05A
:1001D000880F991F6A95E2F7282B24BB08954423C2
:1001E00061F421B381E090E002C0880F991F6A9505
:1001F000E2F78095822381BB0895413051F421B309
:1002000081E090E002C0880F991F6A95E2F7282BE1
:1002100021BB0895813029F1813038F0823009F412
:100220003CC0833009F06EC053C0442361F42BB34B
:1002300081E090E002C0880F991F6A95E2F78095EF
:1002400082238BBB0895413009F05CC02BB381E061
:1002500090E002C0880F991F6A95E2F7282B2BBB0C
:100260000895442361F428B381E090E002C0880F30
:10027000991F6A95E2F78095822388BB08954130E3
:1002800009F040C028B381E090E002C0880F991FB8
:100290006A95E2F7282B28BB0895442361F425B31F
:1002A00081E090E002C0880F991F6A95E2F780957F
:1002B000822385BB0895413029F525B381E090E084
:1002C00002C0880F991F6A95E2F7282B25BB089575
:1002D000442361F422B381E090E002C0880F991FAB
:1002E0006A95E2F78095822382BB0895413051F4EC
:1002F00022B381E090E002C0880F991F6A95E2F76F
:10030000282B22BB0895813051F0813030F08230AB
:1003100041F0833079F080E0089589B303C086B35B
:1003200001C083B390E002C0959587956A95E2F786
:100330008170089580B390E002C0959587956A9585
:10034000E2F781700895DF92EF92FF920F931F936F
:10035000CF93DF932DE6E22E00E010E0D02E81E077
:10036000602F40E00E940A01E801CC0FDD1FCC0F96
:10037000DD1FC05ADF4F84E0F82E81E06F2D0E9410
:100380000A02882339F4E88081E06F2D0E940A0276
:100390008823D1F3F394219688E0F81671F781E071
:1003A0006D2D41E00E940A010F5F1F4F04301105BF
:1003B000A9F68E2DDF91CF911F910F91FF90EF90B5
:1003C000DF9008951F9310E0143058F481E0612FFE
:1003D00041E00E94910081E0612F41E00E940A010A
:1003E00004C081E0612F0E940D021F5F183061F789
:1003F0001F910895E82FF0E0EE0FFF1FE059FF4F27
:1004000080E060810E946E00089580E061E00E94BB
:10041000410008950E94830108950F931F93182FA0
:10042000062F40E00E949100812F602F41E00E9442
:100430000A011F910F910895AF92BF92CF92DF9260
:10044000EF92FF920F931F93CF93DF930E940502C9
:100450000E94E20182E061E00E94410018E234E083
:10046000E32EFF2400E0DD24CC24C0E9D1E02AE023
:10047000B22E94E0A92E03C0102F00E0DD2482E00C
:100480006D2D41E00E940A0182E067E040E00E9499
:100490000A0182E066E041E00E940A018F2D0E947D
:1004A000FA0188EE93E0FE013197F1F70197D9F751
:1004B00082E067E041E00E940A0182E066E040E0FD
:1004C0000E940A018E2D0E94FA0188EE93E0FE013F
:1004D0003197F1F70197D9F70E94A3018B3229F0E8
:1004E0008D3271F18A32D9F503C081E0C826C7CFB9
:1004F00082E067E040E00E940A0182E066E040E0BE
:100500000E940A0110E00E94A3018A30A8F41B9DFA
:10051000102D1124180F82E067E041E00E940A01CB
:1005200082E066E040E00E940A01812F6AE00E94BA
:10053000EB02892F0E94FA01812F8A508A3518F721
:10054000812F6AE00E94EB02F92E812F0E94EB02BC
:10055000E82E82E06D2D40E00E940A018ECFCC2073
:1005600009F08DCF0F5F0117D9F4802F6AE00E9448
:10057000EB02F92E802F0E94EB02E82E82E062E06F
:1005800040E00E940A0182E06D2D40E00E940A01D5
:10059000D39482E0D81609F46FCF102F00E06FCF0C
:1005A000202F30E0812F90E00A97281739071CF0A0
:1005B00085B38A2585BBFF2061F4EE2031F4812FBD
:1005C0006AE00E94EB02E82E01C0EA9489E0F82E6E
:1005D00056CFFA9454CF991B79E004C0991F96170F
:1005E00008F0961B881F7A95C9F780950895F894AE
:0205F000FFCF3B
:1005F2000708092F0405062A0102032D63003D2B7B
:100602003F0006005B004F0066006D007D000700A2
:040612007F006F00F6
:00000001FF
